:100B7A00696E707574207073773A00544D3A007339
:100B8A00657420796F75207073773A0073657420E5
:100B9A006F6B21006F70656E2100466F7267657416
:100BAA003F007761726E696E67212121006B65656E
:100BBA0070206177617921006368616E67652070D2
:100BCA0073773F00696E7075742072657073770071
:100BDA007265736574206F6B2100636C6F736500B7
:080BEA000102030405060708DF
:100E670008150000000000000000080B000000004B
:040E77000000000077
:060EB700D2A27F0A7E00BA
:0B0EBD00EF1FAC0670011E4C70F62207
:100EA400C2A0D2A1120EB7C2A2308706C2A2D2A299
:030EB40080F722A2
:050E5100C2007526013E
:100E5600A20092A0C2A1852680120EB7C2A2020EDF
:010E6600A4E7
:100D5100C200752638120E567F2C7E01120EBDC2BE
:100D61000075260C120E56120E51C200752606028F
:020D71000E561C
:030D7300E4FDFF9D
:100D7600AB07ED700AC200EB4480F526120E56BD95
:0D0D8600010AC200EB44C0F526120E5622F1
:100CDF008B238A248925AB23AA24A925120E2160F0
:100CEF0016D2000525E5257002052414F9120E21F0
:080CFF00F526120E5680DF22DB
:1008000075900FE590540F640F70030208D77508B8
:10081000017590EFE590540F24F9602C24FC601DC5
:1008200024FE600E14702CE590540FFFBF0FF87F6C
:100830002A22E590540FFFBF0FF87F0722E590545E
:100840000FFFBF0FF87F0422E590540FFFBF0FF892
:100850007F01227590DFE590540F24F9602C24FC71
:10086000601D24FE600E14702CE590540FFFBF0F26
:10087000F87F2A22E590540FFFBF0FF87F0822E58A
:1008800090540FFFBF0FF87F0522E590540FFFBF74
:100890000FF87F02227590BFE590540F24F9602C69
:1008A00024FC601D24FE600E14702EE590540FFF92
:1008B000BF0FF87F2322E590540FFFBF0FF87F2A68
:1008C00022E590540FFFBF0FF87F0622E590540FEA
:0A08D000FFBF0FF87F0322AF1D22C7
:03000B00020D2EB5
:100D2E00C0E0C0D075D000C007050AE50A70020504
:100D3E0009758C3C758AB01208008F1DD007D0D073
:030D4E00D0E032C0
:100D9300E51364017019F513FFEF900BEA93FE74EA
:0F0DA3000B2FF8E66E6004751301220FBF08EAEC
:010DB200221E
:100DD300E4F513FF74152FF8E6FE740B2FF8E66E97
:0A0DE3006004751301220FBF08EA37
:010DED0022E3
:1009A900E4F521740B2521F8E4F60521E521B408C5
:1009B900F2120D737BFF7A0B797A120CDF0D7F0C23
:1009C900120D767BFF7A0B7985120CDFD200E514C4
:1009D9002430F526120E56E4F521E521C39408507A
:1009E90060120E3AE50860FCE51DB42A23E52114DE
:1009F900FF7D01120D76D200752620120E56E521D3
:100A0900D3940040D51521740B2521F8E4F680CA4A
:100A1900E51DB423117D01AF21120D76D200752693
:100A290023120E56801B7D01AF21120D76D200755F
:100A3900262A120E56AF210521740B2FF8A61D8008
:100A490099120E3DE4F509F50AC3E50A9414E5097E
:040A5900940040F5D0
:010A5D002276
:100A5E00120D737BFF7A0B7989120CDF0DE4FF12F6
:100A6E000D76E4F521120E3AE50860FCE51D642AC8
:100A7E006021E51D6423601B74152521F8A61DD287
:100A8E0000E51D2430F526120E560521E521C394EE
:100A9E000840D2E4F509F50AC3E50A9414E5099471
:100AAE000040F5120E517D01E4FF120D767BFF7AA8
:100ABE000B7996120CDFE4F521120E3D0521E5218E
:100ACE00C3941440F4120EC8E4F509F50AC3E50AFE
:100ADE009432E509940040F5C200752601020E56C7
:100D0700120E51E4FD7F0A120D76120EC87BFF7A90
:100D17000B799E120CDFE4F509F50AC3E50A94285E
:070D2700E509940040F522EC
:100C8900120E51E4FDFF120D767BFF7A0B79A41247
:100C99000CDF120E7CE4F509F50AC3E50A9414E5A4
:0B0CA90009940040F5120E51151422B2
:100BF200E4F521F522120E51E4FDFF120D767BFF82
:100C02007A0B79AC120CDFE4F521F522120E900575
:100C120022E52270020521C39450E521648094806C
:100C220040EA7D01E4FF120D767BFF7A0B79B71261
:100C32000CDFE4F509F50AC3E50A9450E5099400CE
:0A0C420040F5C200752601020E56AF
:1008DA00120E51E4FDFF120D767BFF7A0B79C212DC
:1008EA000CDF0DE4FF120D76E4F508E50860FCE57F
:1008FA001D642360030209A3FDFF120D767BFF7AB4
:10090A000B79CE120CDF0DE4FF120D76E4F521749B
:10091A00152521F8E4F60521E521B408F2E4F521CC
:10092A00E4F508120E3DE50860FCE51D642A602125
:10093A00E51D6423601B74152521F8A61DD200E568
:10094A001D2430F526120E560521E521C3940840D0
:10095A00CFE4F509F50AC3E50A9414E509940040C1
:10096A00F5120E517D01E4FF120D767BFF7A0B79A9
:10097A00DA120CDFE4F521120E3D0521E521C394BC
:10098A001440F4120EC8E4F509F50AC3E50A9432D4
:0E099A00E509940040F5120E51E51D120E51B4
:0109A800222C
:100CB400E4FD7F0A120D767BFF7A0B79E4120CDFD8
:100CC400120EC8E4F509F50AC3E50A9428E5099467
:0B0CD4000040F5C200752601020E561C
:0F0DEE00C2B57F327E00120DFDD2B57F507E0060
:0B0DFD00EF1FAC0670011E4C70F622C8
:100DB3007D64AF051DEF6017C2B57FC87E00120DBD
:0F0DC300FDD2B57F647E00120DFD120DEE80E3B0
:010DD20022FE
:030E3A00E4F508D4
:100E3D007D20AF051DEF600BB2B57FC87E00120D92
:030E4D00FD80EF36
:010E5000227F
:100E7C007D64AF051DEF600BB2B57FF47E01120DE2
:030E8C00FD80EFF7
:010E8F002240
:0D0EC8007D64AF051DEF6005120DEE80F595
:010ED50022FA
:100E90007D0AAF051DEF600BB2B57FD07E07120D46
:030EA000FD80EFE3
:010EA300222C
:100E0800E4F521F522758901758C3C758AB0D2AF5D
:090E1800D2A9D2B9D28C020DB3AB
:100C4C00120D51120E08D2B2120A5EC2B275140302
:100C5C001209A9120DD3120D93E513700F120D0783
:100C6C00C2B21208DA120CB4D2B280E1E514D394F9
:0D0C7C00014005120C8980D8120BF280D0C7
:03000000020AEE03
:0C0AEE00787FE4F6D8FD758126020B35F8
:100E2100BB010689828A83E0225002E722BBFE02CF
:090E3100E32289828A83E4932202
:100AFA00020C4CE493A3F8E493A34003F68001F2BA
:100B0A0008DFF48029E493A3F85407240CC8C333FC
:100B1A00C4540F4420C8834004F456800146F6DFCB
:100B2A00E4800B0102040810204080900E67E47EE6
:100B3A00019360BCA3FF543F30E509541FFEE493C0
:100B4A00A360010ECF54C025E060A840B8E493A387
:100B5A00FAE493A3F8E493A3C8C582C8CAC583CAB2
:100B6A00F0A3C8C582C8CAC583CADFE9DEE780BE6A
:010E7B000076
:00000001FF
