:03000000020236C3
:0C023600787FE4F6D8FD75811502027D8A
:0A035D00C0F9A4B0999282F88090D4
:09000E00010E00010900010800C7
:1002C20075A0FF750B0CE4F50DF50A758911758C97
:1002D2003C758AB0758D3C758BB0D2AFD2A9D2ABCA
:0F02E200D28CD28E750CFF1202F112016C80F8D3
:10016C00E50B75F00A8490035D93FFE50B75F00ABF
:10017C0084E5F093FDE50D75F00A8493FBE50D75B0
:10018C00F00A84E5F093F512E50A75F00A8493F50C
:0F019C0013E50A75F00A84E5F093F5147515FF65
:1001AB008F0F8D108B11E50EB40108E5155401F579
:1001BB00908003759001850F80120320E50EB4012A
:1001CB0008E5155402F59080037590028510801296
:1001DB000320E50EB40208E5155404F59080037571
:1001EB009004851180120320E50EB40208E5155426
:1001FB0008F5908003759008851280120320E50E98
:10020B00B40308E5155410F5908003759010851311
:10021B0080120320E50EB40308E5155420F59080F9
:0B022B00037590208514801203202230
:03000B0002036786
:09036700758C3C758AB005093261
:03001B000203429B
:10034200C0E0C0D0758D3C758BB00508E508C3943C
:0B035200144003750800D0D0D0E0324A
:040320007F027E00DA
:10032400D3EF9400EE940040147D787C00ED1D70B2
:0D033400011CED4C70F7EF1F70E61E80E31A
:010341002299
:10001E0030A00302016BC2A77F647E00120324305E
:10002E00A00302015C7F647E00120324D2A7050E9A
:10003E00E50ED394034003E4F50E20A02AC2A77F59
:10004E000A7E0012032420A00F050EE50ED39403A2
:10005E004006E4F50E02015C30A0FD7F0A7E001220
:10006E00032430A0FDD2A720A148C2A77F507E0056
:10007E0012032420A12DE50EB4010A050BE50BB4E5
:10008E001803E4F50BE50EB4020A050DE50DB43CBC
:10009E0003E4F50DE50EB4030A050AE50AB43C03C4
:1000AE00E4F50A30A0FD7F0A7E0012032430A0FD85
:1000BE00D2A720A240C2A77F507E0012032420A206
:1000CE0025E50EB40106D50B03750B17E50EB4022C
:1000DE0006D50D03750D3BE50EB4030A150AE50AA8
:1000EE00B43B03750A3B30A0FD7F0A7E0012032449
:1000FE0030A0FDD2A7E508D3940F500312016CE592
:10010E0008D3940F5003020048E50B75F00A849053
:10011E00035D93FFE50B75F00A84E5F093FDE50DA5
:10012E0075F00A8493FBE50D75F00A84E5F093F5FE
:10013E0012E50A75F00A8493F513E50A75F00A8440
:10014E00E5F093F514E4F5151201AB02004830A06A
:0E015E00FD7F0A7E0012032430A0FDD2A722EE
:1002F10012001EE509C394144024E4F509050AE53A
:100301000A943C4019E4F50A050DE50D943C400EB4
:0F031100E4F50D050BE50B94184003E4F50B2202
:100242000202C2E493A3F8E493A34003F68001F20E
:1002520008DFF48029E493A3F85407240CC8C333BD
:10026200C4540F4420C8834004F456800146F6DF8C
:10027200E4800B010204081020408090000EE47E0E
:10028200019360BCA3FF543F30E509541FFEE49381
:10029200A360010ECF54C025E060A840B8E493A348
:1002A200FAE493A3F8E493A3C8C582C8CAC583CA73
:1002B200F0A3C8C582C8CAC583CADFE9DEE780BE2B
:0100170000E8
:00000001FF
