:030000000201BE3C
:0C01BE00787FE4F6D8FD7581150202057B
:0A031200C0F9A4B0999282F880901F
:09000E00010E00010900010800C7
:10001E0075A0FF750B0CE4F50DF50A758911758C3D
:10002E003C758AB0758D3C758BB0D2AFD2A9D2AB70
:10003E00D28CD28E120105E509C394144024E4F546
:10004E0009050AE50A943C4019E4F50A050DE50D8B
:10005E00943C400EE4F50D050BE50B94184003E4BB
:10006E00F50BE508D3940F5042E50B75F00A84901A
:10007E00031293FFE50B75F00A84E5F093FDE50D91
:10008E0075F00A8493FBE50D75F00A84E5F093F59F
:10009E0012E50A75F00A8493F513E50A75F00A84E1
:1000AE00E5F093F5147515FF12024AE508D3940F87
:1000BE004082E50B75F00A8490031293FFE50B75F1
:1000CE00F00A84E5F093FDE50D75F00A8493FBE5E7
:1000DE000D75F00A84E5F093F512E50A75F00A84C1
:1000EE0093F513E50A75F00A84E5F093F514E4F53B
:0700FE001512024A02004244
:10024A008F0F8D108B11E50EB40108E5155401F5D9
:10025A00908003759001850F801202D5E50EB401D6
:10026A0008E5155402F590800375900285108012F6
:10027A0002D5E50EB40208E5155404F5908003751D
:10028A0090048511801202D5E50EB40208E51554D2
:10029A0008F59080037590088512801202D5E50E44
:1002AA00B40308E5155410F5908003759010851372
:1002BA00801202D5E50EB40308E5155420F59080A6
:0B02CA00037590208514801202D522DD
:03000B0002031CD1
:09031C00758C3C758AB0050932AC
:03001B000202F7E7
:1002F700C0E0C0D0758D3C758BB00508E508C39488
:0B030700144003750800D0D0D0E03295
:0402D5007F027E0026
:1002D900D3EF9400EE940040147D787C00ED1D70FE
:0D02E900011CED4C70F7EF1F70E61E80E366
:0102F60022E5
:1001050020A027C2A77F327E001202D920A00C05AD
:100115000EE50ED394034003E4F50E30A0FD7F0AEF
:100125007E001202D930A0FDD2A720A148C2A77F28
:100135005A7E001202D920A12DE50EB4010A050B45
:10014500E50BB41803E4F50BE50EB4020A050DE55D
:100155000DB43C03E4F50DE50EB4030A050AE50A02
:10016500B43C03E4F50A30A0FD7F0A7E001202D9F3
:1001750030A0FDD2A720A240C2A77F5A7E0012025E
:10018500D920A225E50EB40106D50B03750B17E59D
:100195000EB40206D50D03750D3BE50EB4030A1525
:1001A5000AE50AB43B03750A3B30A0FD7F0A7E00D1
:0901B5001202D930A0FDD2A722EC
:1001CA0002001EE493A3F8E493A34003F68001F22D
:1001DA0008DFF48029E493A3F85407240CC8C33336
:1001EA00C4540F4420C8834004F456800146F6DF05
:1001FA00E4800B010204081020408090000EE47E87
:10020A00019360BCA3FF543F30E509541FFEE493F9
:10021A00A360010ECF54C025E060A840B8E493A3C0
:10022A00FAE493A3F8E493A3C8C582C8CAC583CAEB
:10023A00F0A3C8C582C8CAC583CADFE9DEE780BEA3
:0100170000E8
:00000001FF
