:10050C0020323031332D30332D30332053554E20A3
:10051C00002020202030303A30303A30302020205B
:02052C002000AD
:10052E00011100010F00020907DD010C00010E0090
:0C053E00011000011207010803010B036B
:0D054B00C2A18F807F0A120558D2A07F0A3E
:0D055800EFD3940040077E6EDEFE1F80F39F
:010565002273
:0F05E30012061B7F8D1205F27F5512061B7F8EAD
:0805F200C2A212054BC2A022B7
:030618002430FF8C
:08061B00D2A212054BC2A0227D
:100566007F8C1205F27F4D12061B7F8D1205F27FDE
:090576004F1205ED7F4E02061B39
:0F05FA007F8C1205F27F541205E37F4502061B2A
:10057F007F8C1205F27F5712061B7F8D1205F27FBB
:09058F00451205ED7F4402061B34
:100598007F8C1205F27F5412061B7F8D1205F27FA5
:0905A800481205ED7F5502061B07
:1005B1007F8C1205F27F4612061B7F8D1205F27F9A
:0905C100521205ED7F4902061BF0
:1005CA007F8C1205F27F5312061B7F8D1205F27F74
:0905DA00411205ED7F5402061BDD
:0F0609007F8C1205F27F531205E37F4E02061B12
:1004A000EF14B4070050389004B575F003A4C58369
:1004B00025F0C583730204CA0204CD0204D00204ED
:1004C000D30204D60204D90204DC0205660205FA4E
:1004D00002057F0205980205B10205CA120609222B
:1003D800C2A07F381205F27F0C1205F27F061205C3
:1003E800F27F011205F27F801205F2758901D2A908
:1003F800D2AF758C3C758AB0D28C7F801205F2E43E
:10040800F50DE50D90050C93FF12061B7F051205EF
:1004180058050DE50DC3940F40E87FC01205F2E4BE
:10042800F50DE50D90051D93FF12061B7F051205BE
:0B04380058050DE50DC3940B40E822B1
:0404E000AD107F0AD2
:0204E400AC0763
:1004E600ED75F00A84FBED75F00A84ADF0EC24C0DE
:1004F600FF1205F2EB120618EC24C1FF1205F2ED0D
:060506002430FF02061B79
:0801C600AF0AAB0BAD08AE0956
:0601CE008F828E83AA055A
:1001D4007C037DE81203838E138F147C037DE8AFC8
:1001E40082AE831203837E007F64CFCDCFCECCCE8C
:1001F4001203838E158F167C037DE8AF82AE8312C3
:1002040003837E007F64CFCDCFCECCCE1203837E1A
:10021400007F0ACFCDCFCECCCE1203838E178F189A
:10022400AE83AF827C037DE81203837E007F64CFBC
:10023400CDCFCECCCE1203837E007F0ACFCDCFCEDE
:10024400CCCE1203838D828C83EA75F00A1203618B
:10025400F9EA75F00A120361AFF0AD07EB75F00A25
:10026400120361FCEB75F00A120361AFF0AB077F78
:10027400811205F2E5141206187F821205F2E516C2
:100284002430FF12061B7F831205F2E5182430FF89
:1002940012061B7F841205F2AF82EF2430FF120690
:1002A4001B7F861205F2E92430FF12061B7F87129A
:1002B40005F2ED2430FF12061B7F891205F2EC24AF
:1002C40030FF12061B7F8A1205F2EB2430FF020670
:0102D4001B0E
:10000E0020B36C7F0A12055820B364050FC28CE42E
:10001E00F51130B3FDE50FB4010A7FCB1205F27F67
:10002E000F1205F2E50FB402057FC81205F2E50FB7
:10003E00B403057FC51205F2E50FB404057F8E12D9
:10004E0005F2E50FB405057F8A1205F2E50FB40639
:10005E00057F871205F2E50FB407057F841205F2BE
:10006E00E50FB4080AE4F50F7F0C1205F2D28CE509
:10007E000F70030201AD30B20302011F7F0512059E
:10008E005830B20302011F30B2FDE50FB4010D0569
:10009E0010E510B43C03E4F5101204E0E50FB402D1
:1000AE0011050EE50EB43C03E4F50EAD0E7F0712FE
:1000BE0004E4E50FB40311050CE50CB41803E4F5E4
:1000CE000CAD0C7F041204E4E50FB4040F0512E529
:1000DE0012B40803751201AF121204A0E50FB40595
:1000EE000D050BE50BB42003750B011201C6E50FD0
:1000FE00B4060D0508E508B40D037508011201C616
:10010E00E50FB4070C050AE50A70020509FF120196
:10011E00C830B1030201AD7F0A12055830B1030297
:10012E0001AD30B1FDE50FB4010D1510E510B4FFB2
:10013E000375103B1204E0E50FB40211150EE50E27
:10014E00B4FF03750E3BAD0E7F071204E4E50FB44A
:10015E000311150CE50CB4FF03750C17AD0C7F04E1
:10016E001204E4E50FB4040BD51203751207AF1297
:10017E001204A0E50FB40509D50B03750B1F120170
:10018E00C6E50FB40609D5080375080C1201C6E5BD
:10019E000FB4070BE50A150A700215091201C612F3
:1001AE0001C6AF121204A01204E0AD0E7F071204B6
:0801BE00E4AD0C7F040204E42F
:080003001203D812000E80FB6D
:03000B00020443A9
:10044300C0E0C0D00511758C3C758AB0E511B414B9
:10045300050510751100E510B43C05050E75100077
:10046300E50EB43C05050C750E00E50CB418070544
:1004730012050B750C00E512B40803751201E50BA8
:10048300B420050508750B01E508B40D0B050AE555
:0D0493000A70020509750801D0D0D0E032D2
:030000000202D524
:0C02D500787FE4F6D8FD75811802031C48
:10036100C2D530F707B2D563F0FF05F030E70CB224
:10037100D5F4048463F0FF05F080018430D502F4E4
:02038100042254
:10038300BC000BBE0029EF8DF084FFADF022E4CC5E
:10039300F875F008EF2FFFEE33FEEC33FCEE9DEC27
:1003A300984005FCEE9DFE0FD5F0E9E4CEFD22ED6D
:1003B300F8F5F0EE8420D21CFEADF075F008EF2FB7
:1003C300FFED33FD4007985006D5F0F222C398FDA8
:0503D3000FD5F0EA2245
:1002E100020003E493A3F8E493A34003F68001F230
:1002F10008DFF48029E493A3F85407240CC8C3331E
:10030100C4540F4420C8834004F456800146F6DFEC
:10031100E4800B010204081020408090052EE47E49
:10032100019360BCA3FF543F30E509541FFEE493E1
:10033100A360010ECF54C025E060A840B8E493A3A8
:10034100FAE493A3F8E493A3C8C582C8CAC583CAD3
:10035100F0A3C8C582C8CAC583CADFE9DEE780BE8B
:01054A0000B0
:00000001FF
