:030000000205F105
:0C05F100787FE4F6D8FD75813C020638E6
:1007730001240F013C0D01220D1027536574204104
:100783006C61726D436C6F636B2030C100C10101FA
:0207930037002D
:1004CE00E52675F00A84C454F0FFE52675F00A841B
:1004DE00EF25F0F508E52375F00A84C454F0FFE526
:1004EE002375F00A84EF25F0F509E53A75F00A84D4
:1004FE00C454F0FFE53A75F00A84EF25F0F50AE5ED
:10050E002175F00A84C454F0FFE52175F00A84EFDA
:10051E0025F0F50BE53875F00A84C454F0FFE53884
:10052E0075F00A84EF25F0F50CE53975F00A84C4F0
:10053E0054F0FFE53975F00A84EF25F0F50DE53B33
:10054E0075F00A84C454F0FFE53B75F00A84EF257C
:06055E00F0F50E0207C9D2
:1002D400300003020436200177E508C4540F75F09A
:1002E4000AA4FFE508540F2FF526E509C4540F7539
:1002F400F00AA4FFE509540F2FF523E50AC4540FAF
:1003040075F00AA4FFE50A540F2FF53AE50BC4541F
:100314000F75F00AA4FFE50B540F2FF521E50CC46B
:10032400540F75F00AA4FFE50C540F2FF538E50DB2
:10033400C4540F75F00AA4FFE50D540F2FF539E5E9
:100344000EC4540F75F00AA4FFE50E540F2FF53BAD
:100354007FC412083CE53A75F00A842430FF120881
:1003640046E53A75F00A84E5F02430FF1208467F2A
:100374002D120846E52375F00A842430FF1208463E
:10038400E52375F00A84E5F02430FF1208467F2D3A
:10039400120846E52675F00A842430FF120846E563
:1003A4002675F00A84E5F02430FF1208467F821295
:1003B400083C7F321208467F30120846E53B75F050
:1003C4000A842430FF120846E53B75F00A84E5F000
:1003D4002430FF1208467F2D120846E53875F00ACE
:1003E400842430FF120846E53875F00A84E5F024C9
:1003F40030FF1208467F2D120846E52175F00A8465
:100404002430FF120846E52175F00A84E5F0243013
:10041400FF1208467F20120846E53975F00A84E584
:10042400F02430FF1208467F803001030204B90231
:1004340004C52000030204CD7F8012083CE4F50FBC
:100444007427250FF8E6FF120846050FE50FC3943D
:100454000F40ED7FC412083CE52475F00A84243073
:10046400FF120846E52475F00A84E5F02430FF12F3
:1004740008467F2D120846E53C75F00A842430FFB7
:10048400120846E53C75F00A84E5F02430FF1208B2
:10049400467F2D120846E52275F00A842430FF12A7
:1004A4000846E52275F00A84E5F02430FF12084678
:1004B40030000C7F8F12083CE5252430FF80077F35
:0904C4008012083C7F201208465A
:0104CD00220C
:100746008F0F7F0A1206C7E50F75F00A847004AF93
:100756000F8012E50F75F00A84FF1206C7E50F75C4
:0D076600F00A84AFF01206C77F0B0206C731
:100003001207EC7F0A1206C77F031206C7E4FF122A
:1000130006C77F0C1206C7120564EF24FE604A145C
:1000230060721470030200BE1470030200E31470C4
:10003300030201D124056003020298300103020286
:1000430098B200C201E4F52530000C7F8F12083C02
:10005300E5252430FF80077F8012083C7F201208AB
:10006300467F0112083C02029830000302029830D6
:1000730001031204CEB201E4F5257F8030010A1298
:10008300083CE5252430FF800512083C7F20120838
:100093004602029830000FE525700675250302021B
:1000A300981525020298200103020298E52570069F
:1000B300752507020298152502029830000CE525E4
:1000C300B40302801005250202982001030202985E
:1000D300E525B40706E4F5250202980525020298F2
:1000E300300040E525B4010FE5247006752417029E
:1000F30002981524020298E525B4020FE53C700628
:10010300753C3B020298153C020298E525640360A6
:1001130003020298E522700675223B02029815221B
:10012300020298200103020298E525B40112E53B7F
:10013300D394005006753B63020298153B02029864
:10014300E525B40212E538D39400500675380C0245
:1001530002981538020298E525B40312E521D394D9
:1001630000500675211F0202981521020298E52509
:10017300B40412E539D39401500675390702029885
:100183001539020298E525B40512E53AD3940050D7
:1001930006753A17020298153A020298E525B40645
:1001A30012E523D39400500675233B0202981523CE
:1001B300020298E52564076003020298E526D394BA
:1001C30000500675263B020298152602029830005D
:1001D30048E525B401120524E524C394185003020D
:1001E3000298E4F524020298E525B40212053CE5E1
:1001F3003CC3943C5003020298E4F53C020298E5A8
:1002030025640360030202980522E522C3943C504F
:1002130003020298E4F522807C300179E525B401DC
:1002230004053B8070E525B4020E0538E538D39408
:100233000C4062E4F538805DE525B4030E0521E545
:1002430021D3941F404FE4F521804AE525B4040EE1
:100253000539E539D39407403C7539018037E525E5
:10026300B4050E053AE53AC394184029E4F53A80FB
:1002730024E525B4060E0523E523C3943C4016E488
:10028300F5238011E525B4070C0526E526C3943C28
:100293004003E4F526200133120805E5237008E541
:1002A30026700405378003E4F537E53AB52412E5F3
:1002B30023B53C0DE526B52208E4F5377F1912076F
:1002C30046E537B40105AF3A1207461202D40200DD
:0102D3001A10
:080850007F127EEBDEFEDFFCEF
:01085800227D
:10056400E4FDFC20901112085020900B0C20900701
:100574001208500DBD32F620911412085020910E2D
:100584007C02E4FD2091071208500DBD32F6209242
:100594001412085020920E7C03E4FD2092071208E6
:1005A400500DBD32F620931412085020930E7C0493
:1005B400E4FD2093071208500DBD32F62094141266
:1005C400085020940E7C05E4FD2094071208500D79
:1005D400BD14F620951412085020950E7C06E4FDF7
:0C05E4002095071208500DBD14F6AF045E
:0105F00022E8
:10079F00C2A68F807F017E001207B0D2A77F057E91
:0107AF000049
:1007B000D3EF9400EE9400400F7DC77C01DCFEDD9A
:0807C000FAEF1F70EB1E80E848
:0107C800220E
:0A083C00C2A7C2A512079FC2A7229F
:0A084600C2A7D2A512079FC2A72285
:1007EC007F3812083C7F0C12083C7F0612083C7FB5
:0907FC000112083C7F8002083C58
:0E082E0081838587898B8D80828486888A8C61
:09079500070800231725040217D0
:10071100C2A300C2A100D2A300E4FEEF1392A2EF94
:10072100C313FFD2A100C2A1000EBE08EEE4FEED8C
:100731001392A2EDC313FDD2A100C2A1000EBE0807
:04074100EEC2A30061
:010745002291
:10067D00C2A300C2A100D2A300E4FDEF1392A2EF2A
:10068D00C313FFD2A100C2A1000DBD08EE00E4FD11
:10069D00A2A2E433FFC43333335480FCEEC3134CB6
:1006AD00FED2A100C2A1000DBD08E5C2A300D2A1DA
:0906BD0000C2A200D2A200AF06A7
:0106C6002211
:1007C900E4FD7F8E120711E4FCEC90083593FF7469
:1007D900082CF8E6FD1207110CBC07ED7D807F8E11
:0307E900020711F3
:10080500E4FBEB90082E93FF12067D74082BF8A6E7
:05081500070BBB07ED1D
:01081A0022BB
:10081B0074BA2FFF74FF3EFEEF1FAC0670011E4C27
:03082B0070F62242
:0206C700AD077D
:1006C900C2AFD2A07FE87E0312081BC2A07F987E2A
:1006D9000812081BE4FBD2A0ED30E00F7FF47E0185
:1006E90012081BC2A07FD27E00800D7FD27E00122D
:1006F900081BC2A07FF47E0112081BEDC313FD0B7A
:07070900BB08D3D2A0D2AF60
:0107100022C6
:1005FD00020003E493A3F8E493A34003F68001F211
:10060D0008DFF48029E493A3F85407240CC8C333FE
:10061D00C4540F4420C8834004F456800146F6DFCD
:10062D00E4800B0102040810204080900773E47EE3
:10063D00019360BCA3FF543F30E509541FFEE493C2
:10064D00A360010ECF54C025E060A840B8E493A389
:10065D00FAE493A3F8E493A3C8C582C8CAC583CAB4
:10066D00F0A3C8C582C8CAC583CADFE9DEE780BE6C
:01079E00005A
:00000001FF
